{
  "_format": "hh-sol-artifact-1",
  "contractName": "PetAdoption",
  "sourceName": "contracts/PetAdoption.sol",
  "abi": [
    {
      "inputs": [
        {
          "internalType": "uint256",
          "name": "initialPetIndex",
          "type": "uint256"
        }
      ],
      "stateMutability": "nonpayable",
      "type": "constructor"
    },
    {
      "inputs": [],
      "name": "addPet",
      "outputs": [],
      "stateMutability": "nonpayable",
      "type": "function"
    },
    {
      "inputs": [
        {
          "internalType": "uint256",
          "name": "adoptIdx",
          "type": "uint256"
        }
      ],
      "name": "adoptPet",
      "outputs": [],
      "stateMutability": "nonpayable",
      "type": "function"
    },
    {
      "inputs": [
        {
          "internalType": "uint256",
          "name": "",
          "type": "uint256"
        }
      ],
      "name": "allAdoptedPets",
      "outputs": [
        {
          "internalType": "uint256",
          "name": "",
          "type": "uint256"
        }
      ],
      "stateMutability": "view",
      "type": "function"
    },
    {
      "inputs": [],
      "name": "getAllAdoptedPets",
      "outputs": [
        {
          "internalType": "uint256[]",
          "name": "",
          "type": "uint256[]"
        }
      ],
      "stateMutability": "view",
      "type": "function"
    },
    {
      "inputs": [],
      "name": "getAllAdoptedPetsByOwner",
      "outputs": [
        {
          "internalType": "uint256[]",
          "name": "",
          "type": "uint256[]"
        }
      ],
      "stateMutability": "view",
      "type": "function"
    },
    {
      "inputs": [],
      "name": "getOwner",
      "outputs": [
        {
          "internalType": "address",
          "name": "",
          "type": "address"
        }
      ],
      "stateMutability": "view",
      "type": "function"
    },
    {
      "inputs": [],
      "name": "owner",
      "outputs": [
        {
          "internalType": "address",
          "name": "",
          "type": "address"
        }
      ],
      "stateMutability": "view",
      "type": "function"
    },
    {
      "inputs": [
        {
          "internalType": "address",
          "name": "",
          "type": "address"
        },
        {
          "internalType": "uint256",
          "name": "",
          "type": "uint256"
        }
      ],
      "name": "ownerAddressToPetList",
      "outputs": [
        {
          "internalType": "uint256",
          "name": "",
          "type": "uint256"
        }
      ],
      "stateMutability": "view",
      "type": "function"
    },
    {
      "inputs": [
        {
          "internalType": "uint256",
          "name": "",
          "type": "uint256"
        }
      ],
      "name": "petIdxToOwnerAddress",
      "outputs": [
        {
          "internalType": "address",
          "name": "",
          "type": "address"
        }
      ],
      "stateMutability": "view",
      "type": "function"
    },
    {
      "inputs": [],
      "name": "petIndex",
      "outputs": [
        {
          "internalType": "uint256",
          "name": "",
          "type": "uint256"
        }
      ],
      "stateMutability": "view",
      "type": "function"
    }
  ],
  "bytecode": "0x6080604052600060015534801561001557600080fd5b506040516105a03803806105a08339810160408190526100349161004e565b600080546001600160a01b03191633179055600155610067565b60006020828403121561006057600080fd5b5051919050565b61052a806100766000396000f3fe608060405234801561001057600080fd5b506004361061009e5760003560e01c8063893d20e811610066578063893d20e8146101045780638da5cb5b14610129578063a002a1351461013c578063b2421a321461014f578063f2d5a0551461017857600080fd5b806319b81577146100a357806330671a09146100b85780633ff4a0eb146100d457806346f43d43146100e95780635f5799ef146100f1575b600080fd5b6100b66100b1366004610438565b610180565b005b6100c160015481565b6040519081526020015b60405180910390f35b6100dc6102ad565b6040516100cb9190610451565b6100b6610305565b6100c16100ff366004610495565b610387565b6000546001600160a01b03165b6040516001600160a01b0390911681526020016100cb565b600054610111906001600160a01b031681565b6100c161014a366004610438565b6103b8565b61011161015d366004610438565b6003602052600090815260409020546001600160a01b031681565b6100dc6103d9565b60015481106101d65760405162461bcd60e51b815260206004820152601860248201527f50657420696e646578206f7574206f6620626f756e647321000000000000000060448201526064015b60405180910390fd5b6000818152600360205260409020546001600160a01b03161561023b5760405162461bcd60e51b815260206004820152601760248201527f50657420697320616c72656164792061646f707465642100000000000000000060448201526064016101cd565b600081815260036020908152604080832080546001600160a01b0319163390811790915583526004825282208054600181810183559184529183209091018390556002805491820181559091527f405787fa12a823e0f2b7631cc41b3ba8828b3321ca811111fa75cd3aa3bb5ace0155565b606060028054806020026020016040519081016040528092919081815260200182805480156102fb57602002820191906000526020600020905b8154815260200190600101908083116102e7575b5050505050905090565b6000546001600160a01b031633146103705760405162461bcd60e51b815260206004820152602860248201527f4f6e6c79206120636f6e7472616374206f776e65722063616e206164642061206044820152676e6577207065742160c01b60648201526084016101cd565b60018054906000610380836104cd565b9190505550565b600460205281600052604060002081815481106103a357600080fd5b90600052602060002001600091509150505481565b600281815481106103c857600080fd5b600091825260209091200154905081565b336000908152600460209081526040918290208054835181840281018401909452808452606093928301828280156102fb57602002820191906000526020600020908154815260200190600101908083116102e7575050505050905090565b60006020828403121561044a57600080fd5b5035919050565b6020808252825182820181905260009190848201906040850190845b818110156104895783518352928401929184019160010161046d565b50909695505050505050565b600080604083850312156104a857600080fd5b82356001600160a01b03811681146104bf57600080fd5b946020939093013593505050565b6000600182016104ed57634e487b7160e01b600052601160045260246000fd5b506001019056fea26469706673582212203f8d28cdfec90fcbb202c97e0ee02d1b64a195a858febda37df2dec7224ef77e64736f6c63430008130033",
  "linkReferences": {},
  "deployedLinkReferences": {}
}